{
  "contractName": "BillContract",
  "abi": [
    {
      "anonymous": false,
      "inputs": [
        {
          "indexed": true,
          "internalType": "uint256",
          "name": "billId",
          "type": "uint256"
        }
      ],
      "name": "BillAdded",
      "type": "event"
    },
    {
      "constant": true,
      "inputs": [
        {
          "internalType": "uint256",
          "name": "",
          "type": "uint256"
        }
      ],
      "name": "bills",
      "outputs": [
        {
          "internalType": "uint256",
          "name": "billId",
          "type": "uint256"
        },
        {
          "internalType": "uint256",
          "name": "patientId",
          "type": "uint256"
        },
        {
          "internalType": "uint256",
          "name": "doctorId",
          "type": "uint256"
        },
        {
          "internalType": "string",
          "name": "doctorName",
          "type": "string"
        },
        {
          "internalType": "string",
          "name": "patientName",
          "type": "string"
        },
        {
          "internalType": "string",
          "name": "billDate",
          "type": "string"
        },
        {
          "internalType": "uint256",
          "name": "totalCost",
          "type": "uint256"
        },
        {
          "internalType": "string",
          "name": "billDescription",
          "type": "string"
        },
        {
          "internalType": "bool",
          "name": "paymentConfirmation",
          "type": "bool"
        }
      ],
      "payable": false,
      "stateMutability": "view",
      "type": "function"
    },
    {
      "constant": false,
      "inputs": [
        {
          "internalType": "uint256",
          "name": "_billId",
          "type": "uint256"
        },
        {
          "internalType": "uint256",
          "name": "_patientId",
          "type": "uint256"
        },
        {
          "internalType": "uint256",
          "name": "_doctorId",
          "type": "uint256"
        },
        {
          "internalType": "string",
          "name": "_doctorName",
          "type": "string"
        },
        {
          "internalType": "string",
          "name": "_patientName",
          "type": "string"
        },
        {
          "internalType": "string",
          "name": "_billDate",
          "type": "string"
        },
        {
          "internalType": "uint256",
          "name": "_totalCost",
          "type": "uint256"
        },
        {
          "internalType": "string",
          "name": "_billDescription",
          "type": "string"
        },
        {
          "internalType": "bool",
          "name": "_paymentConfirmation",
          "type": "bool"
        }
      ],
      "name": "addBill",
      "outputs": [],
      "payable": false,
      "stateMutability": "nonpayable",
      "type": "function"
    },
    {
      "constant": true,
      "inputs": [],
      "name": "getBillCount",
      "outputs": [
        {
          "internalType": "uint256",
          "name": "",
          "type": "uint256"
        }
      ],
      "payable": false,
      "stateMutability": "view",
      "type": "function"
    },
    {
      "constant": true,
      "inputs": [
        {
          "internalType": "uint256",
          "name": "index",
          "type": "uint256"
        }
      ],
      "name": "getBill",
      "outputs": [
        {
          "internalType": "uint256",
          "name": "billId",
          "type": "uint256"
        },
        {
          "internalType": "uint256",
          "name": "patientId",
          "type": "uint256"
        },
        {
          "internalType": "uint256",
          "name": "doctorId",
          "type": "uint256"
        },
        {
          "internalType": "string",
          "name": "doctorName",
          "type": "string"
        },
        {
          "internalType": "string",
          "name": "patientName",
          "type": "string"
        },
        {
          "internalType": "string",
          "name": "billDate",
          "type": "string"
        },
        {
          "internalType": "uint256",
          "name": "totalCost",
          "type": "uint256"
        },
        {
          "internalType": "string",
          "name": "billDescription",
          "type": "string"
        },
        {
          "internalType": "bool",
          "name": "paymentConfirmation",
          "type": "bool"
        }
      ],
      "payable": false,
      "stateMutability": "view",
      "type": "function"
    }
  ],
  "bytecode": "0x608060405234801561001057600080fd5b5061108a806100206000396000f3fe608060405234801561001057600080fd5b506004361061004c5760003560e01c80631883c7cc1461005157806328bdcde81461006f5780634075c71c14610281578063b1cd06e614610536575b600080fd5b610059610748565b6040518082815260200191505060405180910390f35b61009b6004803603602081101561008557600080fd5b8101908080359060200190929190505050610754565b604051808a8152602001898152602001888152602001806020018060200180602001878152602001806020018615151515815260200185810385528b818151815260200191508051906020019080838360005b838110156101095780820151818401526020810190506100ee565b50505050905090810190601f1680156101365780820380516001836020036101000a031916815260200191505b5085810384528a818151815260200191508051906020019080838360005b8381101561016f578082015181840152602081019050610154565b50505050905090810190601f16801561019c5780820380516001836020036101000a031916815260200191505b50858103835289818151815260200191508051906020019080838360005b838110156101d55780820151818401526020810190506101ba565b50505050905090810190601f1680156102025780820380516001836020036101000a031916815260200191505b50858103825287818151815260200191508051906020019080838360005b8381101561023b578082015181840152602081019050610220565b50505050905090810190601f1680156102685780820380516001836020036101000a031916815260200191505b509d505050505050505050505050505060405180910390f35b610534600480360361012081101561029857600080fd5b81019080803590602001909291908035906020019092919080359060200190929190803590602001906401000000008111156102d357600080fd5b8201836020820111156102e557600080fd5b8035906020019184600183028401116401000000008311171561030757600080fd5b91908080601f016020809104026020016040519081016040528093929190818152602001838380828437600081840152601f19601f8201169050808301925050505050505091929192908035906020019064010000000081111561036a57600080fd5b82018360208201111561037c57600080fd5b8035906020019184600183028401116401000000008311171561039e57600080fd5b91908080601f016020809104026020016040519081016040528093929190818152602001838380828437600081840152601f19601f8201169050808301925050505050505091929192908035906020019064010000000081111561040157600080fd5b82018360208201111561041357600080fd5b8035906020019184600183028401116401000000008311171561043557600080fd5b91908080601f016020809104026020016040519081016040528093929190818152602001838380828437600081840152601f19601f82011690508083019250505050505050919291929080359060200190929190803590602001906401000000008111156104a257600080fd5b8201836020820111156104b457600080fd5b803590602001918460018302840111640100000000831117156104d657600080fd5b91908080601f016020809104026020016040519081016040528093929190818152602001838380828437600081840152601f19601f820116905080830192505050505050509192919290803515159060200190929190505050610a1c565b005b6105626004803603602081101561054c57600080fd5b8101908080359060200190929190505050610b83565b604051808a8152602001898152602001888152602001806020018060200180602001878152602001806020018615151515815260200185810385528b818151815260200191508051906020019080838360005b838110156105d05780820151818401526020810190506105b5565b50505050905090810190601f1680156105fd5780820380516001836020036101000a031916815260200191505b5085810384528a818151815260200191508051906020019080838360005b8381101561063657808201518184015260208101905061061b565b50505050905090810190601f1680156106635780820380516001836020036101000a031916815260200191505b50858103835289818151815260200191508051906020019080838360005b8381101561069c578082015181840152602081019050610681565b50505050905090810190601f1680156106c95780820380516001836020036101000a031916815260200191505b50858103825287818151815260200191508051906020019080838360005b838110156107025780820151818401526020810190506106e7565b50505050905090810190601f16801561072f5780820380516001836020036101000a031916815260200191505b509d505050505050505050505050505060405180910390f35b60008080549050905090565b6000818154811061076157fe5b9060005260206000209060090201600091509050806000015490806001015490806002015490806003018054600181600116156101000203166002900480601f01602080910402602001604051908101604052809291908181526020018280546001816001161561010002031660029004801561081f5780601f106107f45761010080835404028352916020019161081f565b820191906000526020600020905b81548152906001019060200180831161080257829003601f168201915b505050505090806004018054600181600116156101000203166002900480601f0160208091040260200160405190810160405280929190818152602001828054600181600116156101000203166002900480156108bd5780601f10610892576101008083540402835291602001916108bd565b820191906000526020600020905b8154815290600101906020018083116108a057829003601f168201915b505050505090806005018054600181600116156101000203166002900480601f01602080910402602001604051908101604052809291908181526020018280546001816001161561010002031660029004801561095b5780601f106109305761010080835404028352916020019161095b565b820191906000526020600020905b81548152906001019060200180831161093e57829003601f168201915b505050505090806006015490806007018054600181600116156101000203166002900480601f0160208091040260200160405190810160405280929190818152602001828054600181600116156101000203166002900480156109ff5780601f106109d4576101008083540402835291602001916109ff565b820191906000526020600020905b8154815290600101906020018083116109e257829003601f168201915b5050505050908060080160009054906101000a900460ff16905089565b60006040518061012001604052808b81526020018a8152602001898152602001888152602001878152602001868152602001858152602001848152602001831515815250908060018154018082558091505090600182039060005260206000209060090201600090919290919091506000820151816000015560208201518160010155604082015181600201556060820151816003019080519060200190610ac5929190610f62565b506080820151816004019080519060200190610ae2929190610f62565b5060a0820151816005019080519060200190610aff929190610f62565b5060c0820151816006015560e0820151816007019080519060200190610b26929190610f62565b506101008201518160080160006101000a81548160ff021916908315150217905550505050887f800ad640f7bbcb651fae6b82ab9be086b9f6a7554b826a244c2eb4a7a839356960405160405180910390a2505050505050505050565b6000806000606080606060006060600080805490508a10610c0c576040517f08c379a00000000000000000000000000000000000000000000000000000000081526004018080602001828103825260138152602001807f42696c6c20646f6573206e6f742065786973740000000000000000000000000081525060200191505060405180910390fd5b610c14610fe2565b60008b81548110610c2157fe5b906000526020600020906009020160405180610120016040529081600082015481526020016001820154815260200160028201548152602001600382018054600181600116156101000203166002900480601f016020809104026020016040519081016040528092919081815260200182805460018160011615610100020316600290048015610cf25780601f10610cc757610100808354040283529160200191610cf2565b820191906000526020600020905b815481529060010190602001808311610cd557829003601f168201915b50505050508152602001600482018054600181600116156101000203166002900480601f016020809104026020016040519081016040528092919081815260200182805460018160011615610100020316600290048015610d945780601f10610d6957610100808354040283529160200191610d94565b820191906000526020600020905b815481529060010190602001808311610d7757829003601f168201915b50505050508152602001600582018054600181600116156101000203166002900480601f016020809104026020016040519081016040528092919081815260200182805460018160011615610100020316600290048015610e365780601f10610e0b57610100808354040283529160200191610e36565b820191906000526020600020905b815481529060010190602001808311610e1957829003601f168201915b5050505050815260200160068201548152602001600782018054600181600116156101000203166002900480601f016020809104026020016040519081016040528092919081815260200182805460018160011615610100020316600290048015610ee25780601f10610eb757610100808354040283529160200191610ee2565b820191906000526020600020905b815481529060010190602001808311610ec557829003601f168201915b505050505081526020016008820160009054906101000a900460ff1615151515815250509050806000015181602001518260400151836060015184608001518560a001518660c001518760e00151886101000151859550849450839350819150995099509950995099509950995099509950509193959799909294969850565b828054600181600116156101000203166002900490600052602060002090601f016020900481019282601f10610fa357805160ff1916838001178555610fd1565b82800160010185558215610fd1579182015b82811115610fd0578251825591602001919060010190610fb5565b5b509050610fde9190611030565b5090565b60405180610120016040528060008152602001600081526020016000815260200160608152602001606081526020016060815260200160008152602001606081526020016000151581525090565b61105291905b8082111561104e576000816000905550600101611036565b5090565b9056fea265627a7a723158204afc6d9fe7574e39efd2d21144500f2610b640627f96d8f1b5e831f7839fabbf64736f6c63430005100032",
  "source": "// SPDX-License-Identifier: MIT\r\npragma solidity ^0.5.16;\r\n\r\ncontract PaymentContract {\r\n    address public owner;\r\n    mapping(address => uint256) public balances;\r\n\r\n    event FundsTransferred(address indexed from, address indexed to, uint256 amount);\r\n\r\n    constructor() public {\r\n        owner = msg.sender;\r\n    }\r\n\r\n    modifier onlyOwner() {\r\n        require(msg.sender == owner, \"Only the contract owner can call this function\");\r\n        _;\r\n    }\r\n\r\n    function transferFunds(address payable _recipient, uint256 _amount) external onlyOwner {\r\n        require(balances[address(this)] >= _amount, \"Insufficient balance in contract\");\r\n        require(_recipient != address(0), \"Invalid recipient address\");\r\n\r\n        balances[address(this)] -= _amount;\r\n        _recipient.transfer(_amount);\r\n\r\n        emit FundsTransferred(address(this), _recipient, _amount);\r\n    }\r\n\r\n    function depositFunds() external payable {\r\n        balances[address(this)] += msg.value;\r\n    }\r\n}\r\n\r\n\r\ncontract BillContract {\r\n    // Event to log when a bill is added\r\n    event BillAdded(uint indexed billId);\r\n\r\n    // Structure to represent a bill\r\n    struct Bill {\r\n        uint billId;\r\n        uint patientId;\r\n        uint doctorId;\r\n        string doctorName;\r\n        string patientName;\r\n        string billDate;\r\n        uint totalCost;\r\n        string billDescription;\r\n        bool paymentConfirmation;\r\n    }\r\n\r\n    // Array to store bills\r\n    Bill[] public bills;\r\n\r\n    // Function to add a new bill\r\n    function addBill(\r\n        uint _billId,\r\n        uint _patientId,\r\n        uint _doctorId,\r\n        string memory _doctorName,\r\n        string memory _patientName,\r\n        string memory _billDate,\r\n        uint _totalCost,\r\n        string memory _billDescription,\r\n        bool _paymentConfirmation\r\n    ) public {\r\n        bills.push(Bill(\r\n            _billId,\r\n            _patientId,\r\n            _doctorId,\r\n            _doctorName,\r\n            _patientName,\r\n            _billDate,\r\n            _totalCost,\r\n            _billDescription,\r\n            _paymentConfirmation\r\n        ));\r\n        emit BillAdded(_billId);\r\n    }\r\n\r\n    // Function to get the total number of bills\r\n    function getBillCount() public view returns (uint) {\r\n        return bills.length;\r\n    }\r\n\r\n    // Function to get a specific bill by index\r\n    function getBill(uint index) public view returns (\r\n        uint billId,\r\n        uint patientId,\r\n        uint doctorId,\r\n        string memory doctorName,\r\n        string memory patientName,\r\n         string memory billDate,\r\n        uint totalCost,\r\n        string memory billDescription,\r\n        bool paymentConfirmation\r\n    ) {\r\n        require(index < bills.length, \"Bill does not exist\");\r\n        Bill memory bill = bills[index];\r\n        return (\r\n            bill.billId,\r\n            bill.patientId,\r\n            bill.doctorId,\r\n            bill.doctorName,\r\n            bill.patientName,\r\n            bill.billDate,\r\n            bill.totalCost,\r\n            bill.billDescription,\r\n            bill.paymentConfirmation\r\n        );\r\n    }\r\n}\r\n",
  "sourcePath": "C:\\Users\\ADMIN\\Documents\\COS30049\\medicweb\\src\\contract\\contracts\\contract.sol",
  "compiler": {
    "name": "solc",
    "version": "0.5.16+commit.9c3226ce.Emscripten.clang"
  },
  "schemaVersion": "3.4.16",
  "updatedAt": "2024-03-27T16:16:08.193Z",
  "networkType": "ethereum",
  "devdoc": {
    "methods": {}
  },
  "userdoc": {
    "methods": {}
  }
}